{
  "_format": "hh-sol-artifact-1",
  "contractName": "ElectronicHealthRecordSystem",
  "sourceName": "contracts/Medio.sol",
  "abi": [
    {
      "inputs": [],
      "stateMutability": "nonpayable",
      "type": "constructor"
    },
    {
      "inputs": [
        {
          "internalType": "address",
          "name": "",
          "type": "address"
        }
      ],
      "name": "doctors",
      "outputs": [
        {
          "internalType": "uint256",
          "name": "id",
          "type": "uint256"
        },
        {
          "internalType": "string",
          "name": "name",
          "type": "string"
        },
        {
          "internalType": "string",
          "name": "specialization",
          "type": "string"
        }
      ],
      "stateMutability": "view",
      "type": "function"
    },
    {
      "inputs": [],
      "name": "getPatientHealthRecord",
      "outputs": [
        {
          "internalType": "string",
          "name": "",
          "type": "string"
        },
        {
          "internalType": "string",
          "name": "",
          "type": "string"
        }
      ],
      "stateMutability": "view",
      "type": "function"
    },
    {
      "inputs": [],
      "name": "owner",
      "outputs": [
        {
          "internalType": "address",
          "name": "",
          "type": "address"
        }
      ],
      "stateMutability": "view",
      "type": "function"
    },
    {
      "inputs": [
        {
          "internalType": "address",
          "name": "",
          "type": "address"
        }
      ],
      "name": "patients",
      "outputs": [
        {
          "internalType": "uint256",
          "name": "id",
          "type": "uint256"
        },
        {
          "internalType": "string",
          "name": "name",
          "type": "string"
        },
        {
          "internalType": "uint256",
          "name": "age",
          "type": "uint256"
        },
        {
          "internalType": "string",
          "name": "gender",
          "type": "string"
        },
        {
          "internalType": "string",
          "name": "condition",
          "type": "string"
        },
        {
          "internalType": "string",
          "name": "treatment",
          "type": "string"
        }
      ],
      "stateMutability": "view",
      "type": "function"
    },
    {
      "inputs": [
        {
          "internalType": "string",
          "name": "_name",
          "type": "string"
        },
        {
          "internalType": "string",
          "name": "_specialization",
          "type": "string"
        }
      ],
      "name": "registerDoctor",
      "outputs": [],
      "stateMutability": "nonpayable",
      "type": "function"
    },
    {
      "inputs": [
        {
          "internalType": "string",
          "name": "_name",
          "type": "string"
        },
        {
          "internalType": "uint256",
          "name": "_age",
          "type": "uint256"
        },
        {
          "internalType": "string",
          "name": "_gender",
          "type": "string"
        }
      ],
      "name": "registerPatient",
      "outputs": [],
      "stateMutability": "nonpayable",
      "type": "function"
    },
    {
      "inputs": [
        {
          "internalType": "address",
          "name": "_patient",
          "type": "address"
        },
        {
          "internalType": "string",
          "name": "_condition",
          "type": "string"
        },
        {
          "internalType": "string",
          "name": "_treatment",
          "type": "string"
        }
      ],
      "name": "updateHealthRecord",
      "outputs": [],
      "stateMutability": "nonpayable",
      "type": "function"
    }
  ],
  "bytecode": "0x608060405234801561001057600080fd5b50336000806101000a81548173ffffffffffffffffffffffffffffffffffffffff021916908373ffffffffffffffffffffffffffffffffffffffff1602179055506114cc806100606000396000f3fe608060405234801561001057600080fd5b506004361061007d5760003560e01c8063833b46bb1161005b578063833b46bb146100ef5780638da5cb5b1461010b578063a9583c2214610129578063e225e3fe1461015b5761007d565b80630869cfbc146100825780631d14c36e146100b75780633d5f406f146100d3575b600080fd5b61009c60048036038101906100979190610cdc565b61017a565b6040516100ae96959493929190610dbb565b60405180910390f35b6100d160048036038101906100cc9190610f99565b6103d6565b005b6100ed60048036038101906100e89190611024565b610581565b005b610109600480360381019061010491906110af565b6106e2565b005b6101136108a6565b6040516101209190611136565b60405180910390f35b610143600480360381019061013e9190610cdc565b6108ca565b60405161015293929190611151565b60405180910390f35b610163610a04565b604051610171929190611196565b60405180910390f35b60016020528060005260406000206000915090508060000154908060010180546101a3906111fc565b80601f01602080910402602001604051908101604052809291908181526020018280546101cf906111fc565b801561021c5780601f106101f15761010080835404028352916020019161021c565b820191906000526020600020905b8154815290600101906020018083116101ff57829003601f168201915b505050505090806002015490806003018054610237906111fc565b80601f0160208091040260200160405190810160405280929190818152602001828054610263906111fc565b80156102b05780601f10610285576101008083540402835291602001916102b0565b820191906000526020600020905b81548152906001019060200180831161029357829003601f168201915b5050505050908060040180546102c5906111fc565b80601f01602080910402602001604051908101604052809291908181526020018280546102f1906111fc565b801561033e5780601f106103135761010080835404028352916020019161033e565b820191906000526020600020905b81548152906001019060200180831161032157829003601f168201915b505050505090806005018054610353906111fc565b80601f016020809104026020016040519081016040528092919081815260200182805461037f906111fc565b80156103cc5780601f106103a1576101008083540402835291602001916103cc565b820191906000526020600020905b8154815290600101906020018083116103af57829003601f168201915b5050505050905086565b6000600160003373ffffffffffffffffffffffffffffffffffffffff1673ffffffffffffffffffffffffffffffffffffffff1681526020019081526020016000206001018054610425906111fc565b905014610467576040517f08c379a000000000000000000000000000000000000000000000000000000000815260040161045e9061127a565b60405180910390fd5b6040518060c0016040528042815260200184815260200183815260200182815260200160405180602001604052806000815250815260200160405180602001604052806000815250815250600160003373ffffffffffffffffffffffffffffffffffffffff1673ffffffffffffffffffffffffffffffffffffffff168152602001908152602001600020600082015181600001556020820151816001019080519060200190610517929190610bc7565b5060408201518160020155606082015181600301908051906020019061053e929190610bc7565b50608082015181600401908051906020019061055b929190610bc7565b5060a0820151816005019080519060200190610578929190610bc7565b50905050505050565b6000600260003373ffffffffffffffffffffffffffffffffffffffff1673ffffffffffffffffffffffffffffffffffffffff16815260200190815260200160002060010180546105d0906111fc565b90501415610613576040517f08c379a000000000000000000000000000000000000000000000000000000000815260040161060a9061130c565b60405180910390fd5b6000600160008573ffffffffffffffffffffffffffffffffffffffff1673ffffffffffffffffffffffffffffffffffffffff16815260200190815260200160002090506000816001018054610667906111fc565b905014156106aa576040517f08c379a00000000000000000000000000000000000000000000000000000000081526004016106a190611378565b60405180910390fd5b828160040190805190602001906106c2929190610bc7565b50818160050190805190602001906106db929190610bc7565b5050505050565b60008054906101000a900473ffffffffffffffffffffffffffffffffffffffff1673ffffffffffffffffffffffffffffffffffffffff163373ffffffffffffffffffffffffffffffffffffffff1614610770576040517f08c379a00000000000000000000000000000000000000000000000000000000081526004016107679061140a565b60405180910390fd5b6000600260003373ffffffffffffffffffffffffffffffffffffffff1673ffffffffffffffffffffffffffffffffffffffff16815260200190815260200160002060010180546107bf906111fc565b905014610801576040517f08c379a00000000000000000000000000000000000000000000000000000000081526004016107f890611476565b60405180910390fd5b604051806060016040528042815260200183815260200182815250600260003373ffffffffffffffffffffffffffffffffffffffff1673ffffffffffffffffffffffffffffffffffffffff168152602001908152602001600020600082015181600001556020820151816001019080519060200190610881929190610bc7565b50604082015181600201908051906020019061089e929190610bc7565b509050505050565b60008054906101000a900473ffffffffffffffffffffffffffffffffffffffff1681565b60026020528060005260406000206000915090508060000154908060010180546108f3906111fc565b80601f016020809104026020016040519081016040528092919081815260200182805461091f906111fc565b801561096c5780601f106109415761010080835404028352916020019161096c565b820191906000526020600020905b81548152906001019060200180831161094f57829003601f168201915b505050505090806002018054610981906111fc565b80601f01602080910402602001604051908101604052809291908181526020018280546109ad906111fc565b80156109fa5780601f106109cf576101008083540402835291602001916109fa565b820191906000526020600020905b8154815290600101906020018083116109dd57829003601f168201915b5050505050905083565b6060806000600160003373ffffffffffffffffffffffffffffffffffffffff1673ffffffffffffffffffffffffffffffffffffffff16815260200190815260200160002090506000816001018054610a5b906111fc565b90501415610a9e576040517f08c379a0000000000000000000000000000000000000000000000000000000008152600401610a9590611378565b60405180910390fd5b8060040181600501818054610ab2906111fc565b80601f0160208091040260200160405190810160405280929190818152602001828054610ade906111fc565b8015610b2b5780601f10610b0057610100808354040283529160200191610b2b565b820191906000526020600020905b815481529060010190602001808311610b0e57829003601f168201915b50505050509150808054610b3e906111fc565b80601f0160208091040260200160405190810160405280929190818152602001828054610b6a906111fc565b8015610bb75780601f10610b8c57610100808354040283529160200191610bb7565b820191906000526020600020905b815481529060010190602001808311610b9a57829003601f168201915b5050505050905092509250509091565b828054610bd3906111fc565b90600052602060002090601f016020900481019282610bf55760008555610c3c565b82601f10610c0e57805160ff1916838001178555610c3c565b82800160010185558215610c3c579182015b82811115610c3b578251825591602001919060010190610c20565b5b509050610c499190610c4d565b5090565b5b80821115610c66576000816000905550600101610c4e565b5090565b6000604051905090565b600080fd5b600080fd5b600073ffffffffffffffffffffffffffffffffffffffff82169050919050565b6000610ca982610c7e565b9050919050565b610cb981610c9e565b8114610cc457600080fd5b50565b600081359050610cd681610cb0565b92915050565b600060208284031215610cf257610cf1610c74565b5b6000610d0084828501610cc7565b91505092915050565b6000819050919050565b610d1c81610d09565b82525050565b600081519050919050565b600082825260208201905092915050565b60005b83811015610d5c578082015181840152602081019050610d41565b83811115610d6b576000848401525b50505050565b6000601f19601f8301169050919050565b6000610d8d82610d22565b610d978185610d2d565b9350610da7818560208601610d3e565b610db081610d71565b840191505092915050565b600060c082019050610dd06000830189610d13565b8181036020830152610de28188610d82565b9050610df16040830187610d13565b8181036060830152610e038186610d82565b90508181036080830152610e178185610d82565b905081810360a0830152610e2b8184610d82565b9050979650505050505050565b600080fd5b600080fd5b7f4e487b7100000000000000000000000000000000000000000000000000000000600052604160045260246000fd5b610e7a82610d71565b810181811067ffffffffffffffff82111715610e9957610e98610e42565b5b80604052505050565b6000610eac610c6a565b9050610eb88282610e71565b919050565b600067ffffffffffffffff821115610ed857610ed7610e42565b5b610ee182610d71565b9050602081019050919050565b82818337600083830152505050565b6000610f10610f0b84610ebd565b610ea2565b905082815260208101848484011115610f2c57610f2b610e3d565b5b610f37848285610eee565b509392505050565b600082601f830112610f5457610f53610e38565b5b8135610f64848260208601610efd565b91505092915050565b610f7681610d09565b8114610f8157600080fd5b50565b600081359050610f9381610f6d565b92915050565b600080600060608486031215610fb257610fb1610c74565b5b600084013567ffffffffffffffff811115610fd057610fcf610c79565b5b610fdc86828701610f3f565b9350506020610fed86828701610f84565b925050604084013567ffffffffffffffff81111561100e5761100d610c79565b5b61101a86828701610f3f565b9150509250925092565b60008060006060848603121561103d5761103c610c74565b5b600061104b86828701610cc7565b935050602084013567ffffffffffffffff81111561106c5761106b610c79565b5b61107886828701610f3f565b925050604084013567ffffffffffffffff81111561109957611098610c79565b5b6110a586828701610f3f565b9150509250925092565b600080604083850312156110c6576110c5610c74565b5b600083013567ffffffffffffffff8111156110e4576110e3610c79565b5b6110f085828601610f3f565b925050602083013567ffffffffffffffff81111561111157611110610c79565b5b61111d85828601610f3f565b9150509250929050565b61113081610c9e565b82525050565b600060208201905061114b6000830184611127565b92915050565b60006060820190506111666000830186610d13565b81810360208301526111788185610d82565b9050818103604083015261118c8184610d82565b9050949350505050565b600060408201905081810360008301526111b08185610d82565b905081810360208301526111c48184610d82565b90509392505050565b7f4e487b7100000000000000000000000000000000000000000000000000000000600052602260045260246000fd5b6000600282049050600182168061121457607f821691505b60208210811415611228576112276111cd565b5b50919050565b7f50617469656e7420697320616c72656164792072656769737465726564000000600082015250565b6000611264601d83610d2d565b915061126f8261122e565b602082019050919050565b6000602082019050818103600083015261129381611257565b9050919050565b7f4f6e6c79207265676973746572656420646f63746f72732063616e207065726660008201527f6f726d207468697320616374696f6e0000000000000000000000000000000000602082015250565b60006112f6602f83610d2d565b91506113018261129a565b604082019050919050565b60006020820190508181036000830152611325816112e9565b9050919050565b7f50617469656e7420646f6573206e6f7420657869737400000000000000000000600082015250565b6000611362601683610d2d565b915061136d8261132c565b602082019050919050565b6000602082019050818103600083015261139181611355565b9050919050565b7f4f6e6c792074686520636f6e7472616374206f776e65722063616e207065726660008201527f6f726d207468697320616374696f6e0000000000000000000000000000000000602082015250565b60006113f4602f83610d2d565b91506113ff82611398565b604082019050919050565b60006020820190508181036000830152611423816113e7565b9050919050565b7f446f63746f7220697320616c7265616479207265676973746572656400000000600082015250565b6000611460601c83610d2d565b915061146b8261142a565b602082019050919050565b6000602082019050818103600083015261148f81611453565b905091905056fea264697066735822122045a07c6bf10e3df2fcf72e400046d8f79696f251b979e2c650c7deecd7f52adb64736f6c63430008090033",
  "linkReferences": {},
  "deployedLinkReferences": {}
}